:100000000C9453000C947B000C947B000C947B00AC
:100010000C947B000C947B000C947B000C947B0074
:100020000C947B000C947B000C947B000C947B0064
:100030000C947B000C9472040C9444030C947B008D
:100040000C94FA020C947B000C94C8020C94A2024B
:100050000C947B000C9416040C947B000C947B0095
:100060000C9475030C947B00000000002500280010
:100070002B0000000000240027002A0004040404D0
:100080000404040402020202020203030303030342
:10009000010204081020408001020408102001021F
:1000A00004081020C10411241FBECFEFD8E0DEBF2A
:1000B000CDBF11E0A0E0B1E0E0E1FDE002C00590BD
:1000C0000D92AC31B107D9F724E0ACE1B1E001C049
:1000D0001D92AD30B207E1F710E0C3E5D0E004C0F7
:1000E0002197FE010E948006C235D107C9F70E9400
:1000F000FC040C9486060C940000E9E9F0E02491DD
:10010000E5E8F0E08491882399F090E0880F991F4A
:10011000FC01EE58FF4FA591B491FC01E859FF4F47
:10012000859194918FB7F894EC91E22BEC938FBF6B
:100130000895AF92BF92CF92DF92EF92FF920F930A
:100140001F93CF93DF936C017B018B01040F151F6D
:10015000EB015E01AE18BF08C017D10759F06991D5
:10016000D601ED91FC910190F081E02DC601099539
:10017000892B79F7C501DF91CF911F910F91FF90E6
:10018000EF90DF90CF90BF90AF900895FC01538D1A
:10019000448D252F30E0842F90E0821B930B541761
:1001A00010F0CF96089501970895FC01918D828DEE
:1001B000981761F0A28DAE0FBF2FB11D5D968C9187
:1001C000928D9F5F9F73928F90E008958FEF9FEFC6
:1001D0000895FC01918D828D981731F0828DE80F82
:1001E000F11D858D90E008958FEF9FEF0895FC013C
:1001F000918D228D892F90E0805C9F4F821B910909
:100200008F739927089580E691E00E94F70021E01E
:10021000892B09F420E0822F089580E090E0892B5B
:1002200029F00E94030181110C9400000895FC0143
:10023000A48DA80FB92FB11DA35ABF4F2C91848D47
:1002400090E001968F739927848FA689B7892C93A4
:10025000A089B1898C91837080648C93938D848DF7
:10026000981306C00288F389E02D80818F7D8083FA
:100270000895EF92FF920F931F93CF93DF93EC01BA
:1002800081E0888F9B8D8C8D98131AC0E889F9893D
:10029000808185FF15C09FB7F894EE89FF89608340
:1002A000E889F98980818370806480839FBF81E0C1
:1002B00090E0DF91CF911F910F91FF90EF90089503
:1002C000F62E0B8D10E00F5F1F4F0F731127E02EDE
:1002D0008C8D8E110CC00FB607FCFACFE889F98916
:1002E000808185FFF5CFCE010E941701F1CFEB8D04
:1002F000EC0FFD2FF11DE35AFF4FF0829FB7F894EA
:100300000B8FEA89FB8980818062CFCFCF93DF9307
:10031000EC01888D8823B9F0AA89BB89E889F9891D
:100320008C9185FD03C0808186FD0DC00FB607FC52
:10033000F7CF8C9185FFF2CF808185FFEDCFCE0185
:100340000E941701E9CFDF91CF9108958E3008F018
:100350008E508770806480937C0080917A008064E6
:1003600080937A0080917A0086FDFCCF809178009E
:100370009091790008953FB7F8948091540190913D
:100380005501A0915601B091570126B5A89B05C013
:100390002F3F19F00196A11DB11D3FBFBA2FA92F04
:1003A000982F8827BC01CD01620F711D811D911D01
:1003B00042E0660F771F881F991F4A95D1F708956D
:1003C00084E080932A018FEF80932B0110924D01DE
:1003D00010924C0110924E0185EE8093BC0008955E
:1003E00082E080932A018FEF80932B0110924D01C0
:1003F00080934C0181E080934E0185EE8093BC0098
:10040000089585ED8093BC008091BC0084FDFCCFF5
:1004100080912A018093290110922A01809129015B
:10042000833011F40C94E00180912901813011F4A2
:100430000C94F00108958F929F92AF92BF920F9308
:100440001F93CF93DF93CDB7DEB7A1970FB6F89484
:10045000DEBF0FBECDBF19A2423008F44AE08E01C4
:100460000F5D1F4F842E912CB12CA12CA50194015E
:100470000E944F06E62FB901CA01EA3044F5E05D5B
:10048000D801EE938D01232B242B252B79F790E0B7
:1004900080E0109769F0FD0101900020E9F73197A5
:1004A000AF014A1B5B0BBD0180E691E00E94990001
:1004B000A1960FB6F894DEBF0FBECDBFDF91CF91EE
:1004C0001F910F91BF90AF909F908F900895E95C1E
:1004D000D7CFFC0101900020E9F73197AF01481B0D
:1004E000590BBC0180E691E00C949900CF92DF9209
:1004F000EF92FF92CF93DF9397FF1BC06B017C01BC
:100500006DE280E691E00E943901EC0166277727D1
:10051000CB016C197D098E099F094AE00E941B02DC
:100520008C0F9D1FDF91CF91FF90EF90DF90CF90C8
:1005300008954AE0DF91CF91FF90EF90DF90CF9048
:100540000C941B021F920F920FB60F9211242F933F
:100550003F934F935F936F937F938F939F93AF934B
:10056000BF93EF93FF9380E691E00E941701FF9104
:10057000EF91BF91AF919F918F917F916F915F911B
:100580004F913F912F910F900FBE0F901F90189594
:100590001F920F920FB60F9211242F938F939F9358
:1005A000EF93FF93E0917001F09171018081E091F0
:1005B0007601F091770182FD1BC0908180917901D5
:1005C0008F5F8F7320917A01821741F0E09179015A
:1005D000F0E0E05AFE4F958F80937901FF91EF9103
:1005E0009F918F912F910F900FBE0F901F90189594
:1005F0008081F4CF1F920F920FB60F9211242F9388
:100600003F938F939F93AF93BF93809150019091AD
:100610005101A0915201B091530130914F0123E05B
:10062000230F2D3758F50196A11DB11D20934F01C1
:100630008093500190935101A0935201B0935301C4
:100640008091540190915501A0915601B0915701AC
:100650000196A11DB11D8093540190935501A09363
:100660005601B0935701BF91AF919F918F913F91E8
:100670002F910F900FBE0F901F90189526E8230F13
:100680000296A11DB11DD2CF78941F920F920FB682
:100690000F9211242F933F934F935F936F937F9308
:1006A0008F939F93AF93BF93CF93DF93EF93FF937A
:1006B000CEE6D0E01882F0E0E0E00995F894888179
:1006C00082608883FF91EF91DF91CF91BF91AF91CD
:1006D0009F918F917F916F915F914F913F912F915A
:1006E0000F900FBE0F901F9018951F920F920FB68C
:1006F0000F9211242F933F934F935F936F937F93A8
:100700008F939F93AF93BF93EF93FF938091B90023
:10071000887F883209F44DC008F5803109F441C062
:10072000B0F4882309F47FC08830D9F1FF91EF91AC
:10073000BF91AF919F918F917F916F915F914F91F9
:100740003F912F910F900FBE0F901F9018958831F9
:1007500081F1803259F780932B0120C0803409F455
:100760004DC0B0F48033B9F3883301F780932B0187
:1007700085EC8093BC0080912A018093290110921E
:100780002A0180912901833029F50E94E001CECF12
:10079000803541F18835D1F1883441F60E9401025B
:1007A000C5CF80914E018093BB0085EC8093BC0047
:1007B000BDCF90914D0180914C01981778F7E09151
:1007C0004D0181E08E0F80934D01F0E0E45DFE4F1E
:1007D0008081E9CF80912901813009F0A7CF0E9463
:1007E000F001A4CFE0914D0181E08E0F80934D0187
:1007F0008091BB00F0E0E45DFE4F808390914D015D
:1008000080914C01981788F285E8D0CFE0914D0196
:1008100081E08E0F80934D018091BB00F0E0E45D9C
:10082000FE4F8083BBCF10922B01B8CF1F920F9247
:100830000FB60F9211242F938F939F93EF93FF93F3
:10084000CF93DF931F92CDB7DEB78091010188234C
:10085000A1F080917A00806480937A001092010167
:100860000F90DF91CF91FF91EF919F918F912F91F9
:100870000F900FBE0F901F90189580917800909167
:100880007900E0910001EE0FFF0BE35EFE4F9183D4
:10089000808380910302909104028F3F980701F1B9
:1008A000FC01E350FE4F20812983019790930402BD
:1008B00080930302898180930001809100018F3F22
:1008C00059F0809100018770806480937C00809152
:1008D0007A00806480937A0081E080930101C0CF28
:1008E0008FEFE9CF1F920F920FB60F9211242F9323
:1008F0003F938F939F93AF93BF93EF93FF93809119
:100900001C0191E0892780931C0181112DC08091E9
:100910000504E82FF0E0EE0FFF1FEB5FFD4F208195
:1009200031818F5F80930504811118C08091070485
:100930008927809307048091090490910A04A0916B
:100940000B04B0910C040196A11DB11D8093090404
:1009500090930A04A0930B04B0930C042C503F4FC7
:100960003093890020938800FF91EF91BF91AF9160
:100970009F918F913F912F910F900FBE0F901F90DD
:100980001895E0E6F1E01382128288EE93E0A0E091
:10099000B0E084839583A683B78386E091E091835A
:1009A000808385EC90E09587848784EC90E097873E
:1009B000868780EC90E0918B808B81EC90E0938B2C
:1009C000828B82EC90E0958B848B86EC90E0978B09
:1009D000868B118E128E138E148E8FEF9FEF909355
:1009E00004028093030210920504109206041092F0
:1009F0000704109208040895789484B5826084BD39
:100A000084B5816084BD85B5826085BD85B5816012
:100A100085BD80916E00816080936E001092810090
:100A2000809181008260809381008091810081604B
:100A3000809381008091800081608093800080910C
:100A4000B10084608093B1008091B0008160809398
:100A5000B00080917A00846080937A0080917A005F
:100A6000826080937A0080917A00816080937A001E
:100A700080917A00806880937A001092C100809102
:100A80007A00886080937A0080917A0084608093F5
:100A90007A0080917A008D7F80937A0080917A002D
:100AA0008E7F80937A0090E080E061E070E020919A
:100AB0007E00AB01082E01C0440F0A94EAF7242BF4
:100AC00020937E0001968630910589F78091800001
:100AD00080918100809188009091890080916F00C1
:100AE0000E947D0010925D0188E180935E01C2E06A
:100AF000C0935F0180938100C093800088EE91E0F5
:100B0000A0E0B0E0D1E0D0935A01909359018093D6
:100B10005801909387008093860089E1809381003B
:100B20000E947D008091800090915F01892B8068F8
:100B3000809380002091580130915901A4EFB0E0DA
:100B40000E9471062AE096958795779567952A9574
:100B5000D1F7709389006093880080915E01909135
:100B60005A01892B80938100D0936F00E09170012E
:100B7000F0917101C083E0916C01F0916D011082E0
:100B8000E0916E01F0916F018FEC808310927801FB
:100B9000E0917401F091750186E08083E09172012B
:100BA000F0917301808180618083E0917201F09106
:100BB0007301808188608083E0917201F0917301FC
:100BC000808180688083E0917201F091730180815F
:100BD0008F7D8083C0E0D0E08FE00E94A601BC0141
:100BE000990F880B990B0E94760284E191E00E9494
:100BF000690280E10E94A601BC01990F880B990B44
:100C00000E94760286E191E00E94690281E10E94E1
:100C1000A601BC01990F880B990B0E94760288E10E
:100C200091E00E94690282E10E94A601BC01990F35
:100C3000880B990B0E9476028AE191E00E9469027A
:100C40000E94BB016B017C0192E0892E912CA12CAA
:100C5000B12C0E94BB016C197D098E099F09683E69
:100C6000734081059105A8F328EEC20E23E0D21E41
:100C7000E11CF11C8A9489288A288B2829F0812C70
:100C8000912C54018394E5CF209709F4A5CF0E94BD
:100C90000301882309F4A0CF0E9400009DCFA1E2A8
:100CA0001A2EAA1BBB1BFD010DC0AA1FBB1FEE1FE6
:100CB000FF1FA217B307E407F50720F0A21BB30B31
:100CC000E40BF50B661F771F881F991F1A9469F7AD
:100CD00060957095809590959B01AC01BD01CF0109
:100CE0000895A29FB001B39FC001A39F700D811D05
:100CF0001124911DB29F700D811D1124911D089525
:100D0000EE0FFF1F0590F491E02D0994F894FFCFAA
:100D1000FF010000000039019900C6008601F700BC
:0C0D2000D500E90061006200630064007F
:00000001FF
